:020000041000EA
:1000000000B5324B212058609868022188439860DF
:10001000D860186158612E4B002199600221596106
:100020000121F02299502B49196001219960352056
:1000300000F044F80222904214D00621196600F024
:1000400034F8196E01211966002018661A6600F04E
:100050002CF8196E196E196E052000F02FF8012189
:100060000842F9D1002199601B49196000215960AB
:100070001A491B48016001219960EB211966A021F2
:10008000196600F012F800219960164914480160C1
:100090000121996001BC002800D000471248134993
:1000A000086003C880F30888084703B5996A0420EC
:1000B0000142FBD001200142F8D103BD02B5186610
:1000C0001866FFF7F2FF186E186E02BD00000240BE
:1000D000000000180000070000035F00212200005C
:1000E000F4000018222000A00001001008ED00E03C
:1000F00000000000000000000000000074B24E7A12
:10010000000004208D080010D1080010D108001054
:1001100000000000000000000000000000000000DF
:10012000000000000000000000000000D1080010E6
:100130000000000000000000D1080010D1080010ED
:10014000D1080010D1080010D1080010D10800100B
:10015000D1080010D1080010D1080010D1080010FB
:10016000D1080010D1080010D1080010D1080010EB
:10017000D1080010D1080010D1080010D1080010DB
:10018000D1080010D1080010D1080010D1080010CB
:10019000D1080010D1080010D1080010D1080010BB
:1001A000D1080010D1080010D1080010D1080010AB
:1001B000D1080010D1080010D108001080B582B01D
:1001C00000AF78607B681B681800BD4602B080BD38
:1001D00080B582B000AF786039607B683A681A6099
:1001E000C046BD4602B080BD80B500AF0B4B432179
:1001F0001800FFF7EDFF0A4B34211800FFF7E8FF66
:10020000084B70211800FFF7E3FF074A074B110066
:100210001800FFF7DDFFC046BD4680BD2440034007
:10022000284003402C4003400103000030400340BD
:1002300080B584B000AF78600023FB6016E0C04654
:100240000F4B1800FFF7BAFF030020221340F7D12D
:100250007B685A1C7A601B785BB21A00094B11004C
:100260001800FFF7B5FFFB680133FB607B681B7864
:100270005BB2002BE3D1FB681800BD4604B080BD23
:10028000184003400040034080B582B000AF786062
:100290007B681B681800BD4602B080BD80B582B087
:1002A00000AF786039607B683A681A60C046BD4626
:1002B00002B080BD80B582B000AF786039607B68E5
:1002C000C0229201944663443A681A60C046BD4613
:1002D00002B080BD80B582B000AF786039607B68C5
:1002E00080229201944663443A681A60C046BD4633
:1002F00002B080BD80B582B000AF78607B6883F3C8
:100300001088C046BD4602B080BD80B582B000AF47
:10031000EFF310837B607B681800BD4602B080BDA0
:1003200080B588B000AFF860B9607A603B60B968AA
:100330000C2000F023FB0300FB61F9690A00520165
:10034000521A93019B1ADB005B189B011900786815
:1003500000F014FB0300BB613B681A04BB6A1B037B
:1003600013437B61FB68204A934202D180239B01A7
:1003700001E080235B013B613B691C4A19001000CE
:10038000FFF7A8FF3B69194A19001000FFF792FF19
:10039000BA68FB6811001800FFF780FFFB6808339C
:1003A000BA6911001800FFF779FFFB6804332121B7
:1003B0001800FFF77FFFC046FB681800FFF764FFD7
:1003C000031EF9DAFB680C337A6911001800FFF795
:1003D00065FFFB68043308211800FFF76BFFC04678
:1003E000BD4608B080BDC04600C0024000C000400D
:1003F000B0B58AB000AFF861B9617A613B613A6922
:100400007B699A4256D8FA6913005B009B189B00DF
:100410002A4A944663447B627B69BB600023FB608D
:10042000BA68FB6811000D0E13001C023B693B60AB
:1004300000237B603A687B682000290000F02AFBDB
:1004400002000B0013003B627B6A04331800FFF7C5
:100450001BFF02003B6A934206D97B6A04333A6A67
:1004600011001800FFF71AFF80231A017B6A1100A0
:100470001800FFF71FFF7B6A1800FFF705FF030056
:10048000E02293431A00BB695B011A437B6A1100A7
:100490001800FFF703FF80231A017B6A1100180080
:1004A000FFF718FF7B6A04333A6A11001800FFF760
:1004B000F5FE00E0C046BD460AB0B0BD0080004079
:1004C00080B584B002AF7D4B00211800FFF7E6FE37
:1004D000AA231B017A4A19001000FFF7DFFE794BAF
:1004E0002F211800FFF7DAFE774A754B110018002C
:1004F000FFF7F0FEC046754B1800FFF7C5FE031E60
:10050000F9DA734B01211800FFF7D4FEC046714B96
:100510001800FFF7B9FE0300012BF8D16E4B032141
:100520001800FFF7C7FEC0466C4B1800FFF7ACFE83
:100530000300012BF8D16A4A6A480223009306237C
:100540000121FFF7EDFE684A684802230093052366
:100550000121FFF7E5FE80235B007B60644B180000
:10056000FFF792FE02007B68934205D97B68604AE0
:1005700019001000FFF792FE80231B01564A190054
:100580001000FFF797FE544B1800FFF77DFE0300A5
:10059000E0229343504A19001000FFF77FFE4E4BB4
:1005A0001800FFF771FE0300032293430222134356
:1005B000494A19001000FFF771FEC046474B18006A
:1005C000FFF762FE030004221340F7D080231B01D3
:1005D000414A19001000FFF77DFE7B68444A19006C
:1005E0001000FFF75BFE80235B007B60414B18002F
:1005F000FFF74AFE02007B68934205D97B683D4ABB
:1006000019001000FFF74AFE314B03211800FFF7D5
:1006100051FEC0462F4B1800FFF736FE03000122A3
:100620001340F7D02A4B1800FFF72EFE0300E022FC
:100630009343274A19001000FFF730FE244B18009F
:10064000FFF722FE03000322934301221343204AB3
:1006500019001000FFF722FEC0461E4B1800FFF7DE
:1006600013FE030002221340F7D080231B01184A17
:1006700019001000FFF72EFE7B681E4A19001000BB
:10068000FFF70CFE1C4B1C4A00210720FFF7B0FEB1
:10069000194B194A00210820FFF7AAFE174B164AEA
:1006A00000210920FFF7A4FE154B154A0021062062
:1006B000FFF79EFEC046BD4602B080BD7880004078
:1006C000004002400C40024000B0FA0004400240EA
:1006D0003C80004044800040308000403880004032
:1006E000002F68590080024000389C1C00C0024066
:1006F0003480004040800040006CDC021BB70000EA
:100700004059730780B500AF2B4B20211800FFF72D
:10071000D1FDC046294B1800FFF7B6FD030020228B
:100720001340F7D080235B00234A19001000FFF725
:10073000C1FDC046214B1800FFF7A6FD0200802333
:100740005B001340F6D08023DB031B4A1900100026
:10075000FFF7B0FDC046194B1800FFF795FD0200EA
:100760008023DB031340F6D080239B04144A190036
:100770001000FFF793FD80239B04124A190010001C
:10078000FFF78CFD104B05211800FFF787FD802334
:100790009B040E4A19001000FFF780FD0C4B02214C
:1007A0001800FFF77BFD0B4B02211800FFF776FDC9
:1007B000C046BD4680BDC04600C0004008C00040E5
:1007C000280000D0180000D0CC400140240000D008
:1007D000044001400C40014080B584B000AF144B90
:1007E000FB60144BBB60144B3B6007E0FA68131DC1
:1007F000FB60BB68191DB96012681A60BA683B6873
:100800009A42F3D10D4A0E4BD31A9B087B6007E046
:10081000BB681A1DBA6000221A607B68013B7B60CE
:100820007B68002BF4DCC046C046BD4604B080BDEA
:10083000D80C001000000020000000200000002064
:100840000000002080B500AF0C4B04211800FFF71A
:1008500025FD0B4A0B4B11001800FFF71FFD084A3E
:10086000094B11001800FFF719FD044B0521180072
:10087000FFF714FDC046BD4680BDC04610E000E055
:10088000CF12130014E000E018E000E080B582B061
:1008900000AFFFF73AFD03007B600120FFF72AFD60
:1008A000C0231B04094A19001000FFF7F7FCFFF7EB
:1008B00007FEFFF727FFFFF78FFFFFF7C3FF7B68F8
:1008C0001800FFF717FD00F03FF8FEE720ED00E00D
:1008D00080B500AFFEE780B582B000AF78607B687E
:1008E0001B681800BD4602B080BD80B582B000AF65
:1008F000786039607B683A681A60C046BD4602B0CD
:1009000080BD000080B584B000AF78607B680A21AC
:10091000180000F033F80300FB600BE0094B1800EF
:10092000FFF7D9FF020080235B02134002D0FB686F
:10093000013BFB60FB68002BF0D1C046C046BD46C2
:1009400004B080BD10E000E080B500AFFFF74CFCC4
:10095000084B1800FFF76CFC80239B04064A190023
:100960001000FFF7C2FFFA235B001800FFF7CAFF71
:10097000F2E7C046C00C00101C0000D00022430863
:100980008B4274D303098B425FD3030A8B4244D357
:10099000030B8B4228D3030C8B420DD3FF22090299
:1009A00012BA030C8B4202D31212090265D0030B58
:1009B0008B4219D300E0090AC30B8B4201D3CB034E
:1009C000C01A5241830B8B4201D38B03C01A524190
:1009D000430B8B4201D34B03C01A5241030B8B4292
:1009E00001D30B03C01A5241C30A8B4201D3CB027D
:1009F000C01A5241830A8B4201D38B02C01A524162
:100A0000430A8B4201D34B02C01A5241030A8B4264
:100A100001D30B02C01A5241CDD2C3098B4201D37C
:100A2000CB01C01A524183098B4201D38B01C01AFA
:100A3000524143098B4201D34B01C01A5241030971
:100A40008B4201D30B01C01A5241C3088B4201D320
:100A5000CB00C01A524183088B4201D38B00C01ACD
:100A6000524143088B4201D34B00C01A5241411AF4
:100A700000D20146524110467047FFE701B5002001
:100A800000F006F802BDC0460029F7D076E77047AF
:100A90007047C046002B11D1002A0FD1002900D188
:100AA000002802D00021C943080007B4024802A16F
:100AB0004018029003BDC046D9FFFFFF03B468464B
:100AC00001B5029800F030F8019B9E4602B00CBCC4
:100AD0007047C04610B5002903D100F007F8203058
:100AE00002E0080000F002F810BDC0461C210123FE
:100AF0001B04984201D3000C10391B0A984201D301
:100B0000000A08391B09984201D30009043902A2DE
:100B1000105C40187047C046040302020101010145
:100B20000000000000000000F0B557464E46454664
:100B3000DE46E0B504000D009246994683B08B4234
:100B400030D82DD049465046FFF7C4FF2900060093
:100B50002000FFF7BFFF331A9846203B34D49B4652
:100B600053465A46934042461F00534693401E0048
:100B7000AF423BD8AF4200D179E05B46A41BBD41F8
:100B8000002B00DA76E0002200230092019301237B
:100B90005A4693400193012342469340009329E033
:100BA0008242CFD900220023009201930C9B002B9C
:100BB00001D01C605D600098019903B0F0BCBB4699
:100BC000B246A946A046F0BD42469B4620239B1A4A
:100BD0005246DA40414613004A468A4017004246D0
:100BE0001F43534693401E00AF42C3D90022002347
:100BF000009201934346002BD8D0FB0772081A439A
:100C000046467B080EE0AB4201D1A2420CD8A41AA2
:100C10009D41012024196D410021013E24184D41C0
:100C2000002E06D0AB42EED9013E24196D41002EB4
:100C3000F8D1009801995B4600196941002B24DB2B
:100C40002B005A464446D3402A00E2401C005B4633
:100C50001500002B2ADB26009E4033002600474665
:100C6000BE403200801A9941009001919EE7A34254
:100C7000BCD882E74246202300219B1A0022009123
:100C800001920122DA40019285E7424620239B1A15
:100C90002A0046469A402300F340444613432A0064
:100CA000E2401C005B461500002BD4DA42462F00C0
:100CB0002023260097409B1ADE403B003343CDE7BC
:0D0CC00068656C6C6F2C776F726C640A00B5
:080CD00058FEFF7F0100000047
:040000051000088D52
:00000001FF
